{
  "contractName": "HogwartsNFT",
  "abi": [
    {
      "inputs": [
        {
          "internalType": "address",
          "name": "vrfCoordinatorV2Address",
          "type": "address"
        },
        {
          "internalType": "uint64",
          "name": "subId",
          "type": "uint64"
        },
        {
          "internalType": "bytes32",
          "name": "keyHash",
          "type": "bytes32"
        },
        {
          "internalType": "uint32",
          "name": "callbackGasLimit",
          "type": "uint32"
        }
      ],
      "stateMutability": "nonpayable",
      "type": "constructor"
    },
    {
      "inputs": [],
      "name": "HogwartsNFT__WithdrawalFailed",
      "type": "error"
    },
    {
      "inputs": [
        {
          "internalType": "address",
          "name": "have",
          "type": "address"
        },
        {
          "internalType": "address",
          "name": "want",
          "type": "address"
        }
      ],
      "name": "OnlyCoordinatorCanFulfill",
      "type": "error"
    },
    {
      "anonymous": false,
      "inputs": [
        {
          "indexed": false,
          "internalType": "bool",
          "name": "s_minted",
          "type": "bool"
        },
        {
          "indexed": false,
          "internalType": "enum HogwartsNFT.House",
          "name": "house",
          "type": "uint8"
        }
      ],
      "name": "AlreadyMinted",
      "type": "event"
    },
    {
      "anonymous": false,
      "inputs": [
        {
          "indexed": true,
          "internalType": "address",
          "name": "owner",
          "type": "address"
        },
        {
          "indexed": true,
          "internalType": "address",
          "name": "approved",
          "type": "address"
        },
        {
          "indexed": true,
          "internalType": "uint256",
          "name": "tokenId",
          "type": "uint256"
        }
      ],
      "name": "Approval",
      "type": "event"
    },
    {
      "anonymous": false,
      "inputs": [
        {
          "indexed": true,
          "internalType": "address",
          "name": "owner",
          "type": "address"
        },
        {
          "indexed": true,
          "internalType": "address",
          "name": "operator",
          "type": "address"
        },
        {
          "indexed": false,
          "internalType": "bool",
          "name": "approved",
          "type": "bool"
        }
      ],
      "name": "ApprovalForAll",
      "type": "event"
    },
    {
      "anonymous": false,
      "inputs": [
        {
          "indexed": false,
          "internalType": "enum HogwartsNFT.House",
          "name": "house",
          "type": "uint8"
        },
        {
          "indexed": false,
          "internalType": "address",
          "name": "minter",
          "type": "address"
        }
      ],
      "name": "NftMinted",
      "type": "event"
    },
    {
      "anonymous": false,
      "inputs": [
        {
          "indexed": true,
          "internalType": "uint256",
          "name": "requestId",
          "type": "uint256"
        },
        {
          "indexed": false,
          "internalType": "address",
          "name": "requester",
          "type": "address"
        }
      ],
      "name": "NftRequested",
      "type": "event"
    },
    {
      "anonymous": false,
      "inputs": [
        {
          "indexed": true,
          "internalType": "address",
          "name": "previousOwner",
          "type": "address"
        },
        {
          "indexed": true,
          "internalType": "address",
          "name": "newOwner",
          "type": "address"
        }
      ],
      "name": "OwnershipTransferred",
      "type": "event"
    },
    {
      "anonymous": false,
      "inputs": [
        {
          "indexed": true,
          "internalType": "address",
          "name": "from",
          "type": "address"
        },
        {
          "indexed": true,
          "internalType": "address",
          "name": "to",
          "type": "address"
        },
        {
          "indexed": true,
          "internalType": "uint256",
          "name": "tokenId",
          "type": "uint256"
        }
      ],
      "name": "Transfer",
      "type": "event"
    },
    {
      "inputs": [
        {
          "internalType": "address",
          "name": "to",
          "type": "address"
        },
        {
          "internalType": "uint256",
          "name": "tokenId",
          "type": "uint256"
        }
      ],
      "name": "approve",
      "outputs": [],
      "stateMutability": "nonpayable",
      "type": "function"
    },
    {
      "inputs": [
        {
          "internalType": "address",
          "name": "owner",
          "type": "address"
        }
      ],
      "name": "balanceOf",
      "outputs": [
        {
          "internalType": "uint256",
          "name": "",
          "type": "uint256"
        }
      ],
      "stateMutability": "view",
      "type": "function",
      "constant": true
    },
    {
      "inputs": [
        {
          "internalType": "uint256",
          "name": "tokenId",
          "type": "uint256"
        }
      ],
      "name": "getApproved",
      "outputs": [
        {
          "internalType": "address",
          "name": "",
          "type": "address"
        }
      ],
      "stateMutability": "view",
      "type": "function",
      "constant": true
    },
    {
      "inputs": [
        {
          "internalType": "address",
          "name": "owner",
          "type": "address"
        },
        {
          "internalType": "address",
          "name": "operator",
          "type": "address"
        }
      ],
      "name": "isApprovedForAll",
      "outputs": [
        {
          "internalType": "bool",
          "name": "",
          "type": "bool"
        }
      ],
      "stateMutability": "view",
      "type": "function",
      "constant": true
    },
    {
      "inputs": [],
      "name": "name",
      "outputs": [
        {
          "internalType": "string",
          "name": "",
          "type": "string"
        }
      ],
      "stateMutability": "view",
      "type": "function",
      "constant": true
    },
    {
      "inputs": [],
      "name": "owner",
      "outputs": [
        {
          "internalType": "address",
          "name": "",
          "type": "address"
        }
      ],
      "stateMutability": "view",
      "type": "function",
      "constant": true
    },
    {
      "inputs": [
        {
          "internalType": "uint256",
          "name": "tokenId",
          "type": "uint256"
        }
      ],
      "name": "ownerOf",
      "outputs": [
        {
          "internalType": "address",
          "name": "",
          "type": "address"
        }
      ],
      "stateMutability": "view",
      "type": "function",
      "constant": true
    },
    {
      "inputs": [
        {
          "internalType": "uint256",
          "name": "requestId",
          "type": "uint256"
        },
        {
          "internalType": "uint256[]",
          "name": "randomWords",
          "type": "uint256[]"
        }
      ],
      "name": "rawFulfillRandomWords",
      "outputs": [],
      "stateMutability": "nonpayable",
      "type": "function"
    },
    {
      "inputs": [],
      "name": "renounceOwnership",
      "outputs": [],
      "stateMutability": "nonpayable",
      "type": "function"
    },
    {
      "inputs": [
        {
          "internalType": "address",
          "name": "",
          "type": "address"
        }
      ],
      "name": "s_addressToHouse",
      "outputs": [
        {
          "internalType": "enum HogwartsNFT.House",
          "name": "",
          "type": "uint8"
        }
      ],
      "stateMutability": "view",
      "type": "function",
      "constant": true
    },
    {
      "inputs": [
        {
          "internalType": "uint256",
          "name": "",
          "type": "uint256"
        }
      ],
      "name": "s_requestIdToSender",
      "outputs": [
        {
          "internalType": "address",
          "name": "",
          "type": "address"
        }
      ],
      "stateMutability": "view",
      "type": "function",
      "constant": true
    },
    {
      "inputs": [
        {
          "internalType": "address",
          "name": "from",
          "type": "address"
        },
        {
          "internalType": "address",
          "name": "to",
          "type": "address"
        },
        {
          "internalType": "uint256",
          "name": "tokenId",
          "type": "uint256"
        }
      ],
      "name": "safeTransferFrom",
      "outputs": [],
      "stateMutability": "nonpayable",
      "type": "function"
    },
    {
      "inputs": [
        {
          "internalType": "address",
          "name": "from",
          "type": "address"
        },
        {
          "internalType": "address",
          "name": "to",
          "type": "address"
        },
        {
          "internalType": "uint256",
          "name": "tokenId",
          "type": "uint256"
        },
        {
          "internalType": "bytes",
          "name": "data",
          "type": "bytes"
        }
      ],
      "name": "safeTransferFrom",
      "outputs": [],
      "stateMutability": "nonpayable",
      "type": "function"
    },
    {
      "inputs": [
        {
          "internalType": "address",
          "name": "operator",
          "type": "address"
        },
        {
          "internalType": "bool",
          "name": "approved",
          "type": "bool"
        }
      ],
      "name": "setApprovalForAll",
      "outputs": [],
      "stateMutability": "nonpayable",
      "type": "function"
    },
    {
      "inputs": [
        {
          "internalType": "bytes4",
          "name": "interfaceId",
          "type": "bytes4"
        }
      ],
      "name": "supportsInterface",
      "outputs": [
        {
          "internalType": "bool",
          "name": "",
          "type": "bool"
        }
      ],
      "stateMutability": "view",
      "type": "function",
      "constant": true
    },
    {
      "inputs": [],
      "name": "symbol",
      "outputs": [
        {
          "internalType": "string",
          "name": "",
          "type": "string"
        }
      ],
      "stateMutability": "view",
      "type": "function",
      "constant": true
    },
    {
      "inputs": [
        {
          "internalType": "uint256",
          "name": "tokenId",
          "type": "uint256"
        }
      ],
      "name": "tokenURI",
      "outputs": [
        {
          "internalType": "string",
          "name": "",
          "type": "string"
        }
      ],
      "stateMutability": "view",
      "type": "function",
      "constant": true
    },
    {
      "inputs": [
        {
          "internalType": "address",
          "name": "from",
          "type": "address"
        },
        {
          "internalType": "address",
          "name": "to",
          "type": "address"
        },
        {
          "internalType": "uint256",
          "name": "tokenId",
          "type": "uint256"
        }
      ],
      "name": "transferFrom",
      "outputs": [],
      "stateMutability": "nonpayable",
      "type": "function"
    },
    {
      "inputs": [
        {
          "internalType": "address",
          "name": "newOwner",
          "type": "address"
        }
      ],
      "name": "transferOwnership",
      "outputs": [],
      "stateMutability": "nonpayable",
      "type": "function"
    },
    {
      "inputs": [],
      "name": "requestNFT",
      "outputs": [
        {
          "internalType": "uint256",
          "name": "requestId",
          "type": "uint256"
        }
      ],
      "stateMutability": "payable",
      "type": "function",
      "payable": true
    },
    {
      "inputs": [],
      "name": "withdraw",
      "outputs": [],
      "stateMutability": "nonpayable",
      "type": "function"
    },
    {
      "inputs": [
        {
          "internalType": "uint256",
          "name": "index",
          "type": "uint256"
        }
      ],
      "name": "getTokenURIs",
      "outputs": [
        {
          "internalType": "string",
          "name": "",
          "type": "string"
        }
      ],
      "stateMutability": "view",
      "type": "function",
      "constant": true
    },
    {
      "inputs": [],
      "name": "getTokenCounter",
      "outputs": [
        {
          "internalType": "uint256",
          "name": "",
          "type": "uint256"
        }
      ],
      "stateMutability": "view",
      "type": "function",
      "constant": true
    }
  ],
  "bytecode": "0x6101206040526040518060800160405280604051806080016040528060458152602001620045ad6045913981526020016040518060800160405280604581526020016200456860459139815260200160405180608001604052806044815260200162004524604491398152602001604051806080016040528060448152602001620045f260449139815250600c9060046200009c92919062000305565b50348015620000aa57600080fd5b5060405162004636380380620046368339818101604052810190620000d091906200051d565b6040518060400160405280600c81526020017f486f677761727473204e465400000000000000000000000000000000000000008152506040518060400160405280600281526020017f4850000000000000000000000000000000000000000000000000000000000000815250858073ffffffffffffffffffffffffffffffffffffffff1660808173ffffffffffffffffffffffffffffffffffffffff168152505050816000908162000183919062000809565b50806001908162000195919062000809565b505050620001b8620001ac6200023760201b60201c565b6200023f60201b60201c565b6000600b819055508373ffffffffffffffffffffffffffffffffffffffff1660a08173ffffffffffffffffffffffffffffffffffffffff16815250508267ffffffffffffffff1660c08167ffffffffffffffff16815250508160e081815250508063ffffffff166101008163ffffffff168152505050505050620008f0565b600033905090565b6000600760009054906101000a900473ffffffffffffffffffffffffffffffffffffffff16905081600760006101000a81548173ffffffffffffffffffffffffffffffffffffffff021916908373ffffffffffffffffffffffffffffffffffffffff1602179055508173ffffffffffffffffffffffffffffffffffffffff168173ffffffffffffffffffffffffffffffffffffffff167f8be0079c531659141344cd1fd0a4f28419497f9722a3daafe3b4186f6b6457e060405160405180910390a35050565b82805482825590600052602060002090810192821562000352579160200282015b828111156200035157825182908162000340919062000809565b509160200191906001019062000326565b5b50905062000361919062000365565b5090565b5b808211156200038957600081816200037f91906200038d565b5060010162000366565b5090565b5080546200039b90620005f8565b6000825580601f10620003af5750620003d0565b601f016020900490600052602060002090810190620003cf9190620003d3565b5b50565b5b80821115620003ee576000816000905550600101620003d4565b5090565b600080fd5b600073ffffffffffffffffffffffffffffffffffffffff82169050919050565b60006200042482620003f7565b9050919050565b620004368162000417565b81146200044257600080fd5b50565b60008151905062000456816200042b565b92915050565b600067ffffffffffffffff82169050919050565b6200047b816200045c565b81146200048757600080fd5b50565b6000815190506200049b8162000470565b92915050565b6000819050919050565b620004b681620004a1565b8114620004c257600080fd5b50565b600081519050620004d681620004ab565b92915050565b600063ffffffff82169050919050565b620004f781620004dc565b81146200050357600080fd5b50565b6000815190506200051781620004ec565b92915050565b600080600080608085870312156200053a5762000539620003f2565b5b60006200054a8782880162000445565b94505060206200055d878288016200048a565b93505060406200057087828801620004c5565b9250506060620005838782880162000506565b91505092959194509250565b600081519050919050565b7f4e487b7100000000000000000000000000000000000000000000000000000000600052604160045260246000fd5b7f4e487b7100000000000000000000000000000000000000000000000000000000600052602260045260246000fd5b600060028204905060018216806200061157607f821691505b602082108103620006275762000626620005c9565b5b50919050565b60008190508160005260206000209050919050565b60006020601f8301049050919050565b600082821b905092915050565b600060088302620006917fffffffffffffffffffffffffffffffffffffffffffffffffffffffffffffffff8262000652565b6200069d868362000652565b95508019841693508086168417925050509392505050565b6000819050919050565b6000819050919050565b6000620006ea620006e4620006de84620006b5565b620006bf565b620006b5565b9050919050565b6000819050919050565b6200070683620006c9565b6200071e6200071582620006f1565b8484546200065f565b825550505050565b600090565b6200073562000726565b62000742818484620006fb565b505050565b5b818110156200076a576200075e6000826200072b565b60018101905062000748565b5050565b601f821115620007b95762000783816200062d565b6200078e8462000642565b810160208510156200079e578190505b620007b6620007ad8562000642565b83018262000747565b50505b505050565b600082821c905092915050565b6000620007de60001984600802620007be565b1980831691505092915050565b6000620007f98383620007cb565b9150826002028217905092915050565b62000814826200058f565b67ffffffffffffffff81111562000830576200082f6200059a565b5b6200083c8254620005f8565b620008498282856200076e565b600060209050601f8311600181146200088157600084156200086c578287015190505b620008788582620007eb565b865550620008e8565b601f19841662000891866200062d565b60005b82811015620008bb5784890151825560018201915060208501945060208101905062000894565b86831015620008db5784890151620008d7601f891682620007cb565b8355505b6001600288020188555050505b505050505050565b60805160a05160c05160e05161010051613be86200093c6000396000610e3901526000610df501526000610e1601526000610db901526000818161085401526108a80152613be86000f3fe6080604052600436106101405760003560e01c806370a08231116100b6578063a36f573b1161006f578063a36f573b1461043b578063b88d4fde14610478578063c87b56dd146104a1578063cd654232146104de578063e985e9c51461051b578063f2fde38b1461055857610140565b806370a082311461034a578063715018a6146103875780637abd25d11461039e5780638da5cb5b146103bc57806395d89b41146103e7578063a22cb4651461041257610140565b806323b872dd1161010857806323b872dd1461023c5780633ccfd60b1461026557806342842e0e1461027c5780636352211e146102a557806364224120146102e25780636e02007d1461031f57610140565b806301ffc9a71461014557806306fdde0314610182578063081812fc146101ad578063095ea7b3146101ea5780631fe543e314610213575b600080fd5b34801561015157600080fd5b5061016c60048036038101906101679190612623565b610581565b604051610179919061266b565b60405180910390f35b34801561018e57600080fd5b50610197610663565b6040516101a49190612716565b60405180910390f35b3480156101b957600080fd5b506101d460048036038101906101cf919061276e565b6106f5565b6040516101e191906127dc565b60405180910390f35b3480156101f657600080fd5b50610211600480360381019061020c9190612823565b61073b565b005b34801561021f57600080fd5b5061023a600480360381019061023591906129ab565b610852565b005b34801561024857600080fd5b50610263600480360381019061025e9190612a07565b610912565b005b34801561027157600080fd5b5061027a610972565b005b34801561028857600080fd5b506102a3600480360381019061029e9190612a07565b610a26565b005b3480156102b157600080fd5b506102cc60048036038101906102c7919061276e565b610a46565b6040516102d991906127dc565b60405180910390f35b3480156102ee57600080fd5b506103096004803603810190610304919061276e565b610acc565b6040516103169190612716565b60405180910390f35b34801561032b57600080fd5b50610334610b7c565b6040516103419190612a69565b60405180910390f35b34801561035657600080fd5b50610371600480360381019061036c9190612a84565b610b86565b60405161037e9190612a69565b60405180910390f35b34801561039357600080fd5b5061039c610c3d565b005b6103a6610c51565b6040516103b39190612a69565b60405180910390f35b3480156103c857600080fd5b506103d1610f4c565b6040516103de91906127dc565b60405180910390f35b3480156103f357600080fd5b506103fc610f76565b6040516104099190612716565b60405180910390f35b34801561041e57600080fd5b5061043960048036038101906104349190612add565b611008565b005b34801561044757600080fd5b50610462600480360381019061045d919061276e565b61101e565b60405161046f91906127dc565b60405180910390f35b34801561048457600080fd5b5061049f600480360381019061049a9190612bd2565b611051565b005b3480156104ad57600080fd5b506104c860048036038101906104c3919061276e565b6110b3565b6040516104d59190612716565b60405180910390f35b3480156104ea57600080fd5b5061050560048036038101906105009190612a84565b6111c5565b6040516105129190612ccc565b60405180910390f35b34801561052757600080fd5b50610542600480360381019061053d9190612ce7565b6111e5565b60405161054f919061266b565b60405180910390f35b34801561056457600080fd5b5061057f600480360381019061057a9190612a84565b611279565b005b60007f80ac58cd000000000000000000000000000000000000000000000000000000007bffffffffffffffffffffffffffffffffffffffffffffffffffffffff1916827bffffffffffffffffffffffffffffffffffffffffffffffffffffffff1916148061064c57507f5b5e139f000000000000000000000000000000000000000000000000000000007bffffffffffffffffffffffffffffffffffffffffffffffffffffffff1916827bffffffffffffffffffffffffffffffffffffffffffffffffffffffff1916145b8061065c575061065b826112fc565b5b9050919050565b60606000805461067290612d56565b80601f016020809104026020016040519081016040528092919081815260200182805461069e90612d56565b80156106eb5780601f106106c0576101008083540402835291602001916106eb565b820191906000526020600020905b8154815290600101906020018083116106ce57829003601f168201915b5050505050905090565b600061070082611366565b6004600083815260200190815260200160002060009054906101000a900473ffffffffffffffffffffffffffffffffffffffff169050919050565b600061074682610a46565b90508073ffffffffffffffffffffffffffffffffffffffff168373ffffffffffffffffffffffffffffffffffffffff16036107b6576040517f08c379a00000000000000000000000000000000000000000000000000000000081526004016107ad90612df9565b60405180910390fd5b8073ffffffffffffffffffffffffffffffffffffffff166107d56113b1565b73ffffffffffffffffffffffffffffffffffffffff1614806108045750610803816107fe6113b1565b6111e5565b5b610843576040517f08c379a000000000000000000000000000000000000000000000000000000000815260040161083a90612e8b565b60405180910390fd5b61084d83836113b9565b505050565b7f000000000000000000000000000000000000000000000000000000000000000073ffffffffffffffffffffffffffffffffffffffff163373ffffffffffffffffffffffffffffffffffffffff161461090457337f00000000000000000000000000000000000000000000000000000000000000006040517f1cf993f40000000000000000000000000000000000000000000000000000000081526004016108fb929190612eab565b60405180910390fd5b61090e8282611472565b5050565b61092361091d6113b1565b82611746565b610962576040517f08c379a000000000000000000000000000000000000000000000000000000000815260040161095990612f46565b60405180910390fd5b61096d8383836117db565b505050565b61097a611ad4565b600047905060003373ffffffffffffffffffffffffffffffffffffffff16826040516109a590612f97565b60006040518083038185875af1925050503d80600081146109e2576040519150601f19603f3d011682016040523d82523d6000602084013e6109e7565b606091505b5050905080610a22576040517f1244a7b300000000000000000000000000000000000000000000000000000000815260040160405180910390fd5b5050565b610a4183838360405180602001604052806000815250611051565b505050565b600080610a5283611b52565b9050600073ffffffffffffffffffffffffffffffffffffffff168173ffffffffffffffffffffffffffffffffffffffff1603610ac3576040517f08c379a0000000000000000000000000000000000000000000000000000000008152600401610aba90612ff8565b60405180910390fd5b80915050919050565b6060600c8281548110610ae257610ae1613018565b5b906000526020600020018054610af790612d56565b80601f0160208091040260200160405190810160405280929190818152602001828054610b2390612d56565b8015610b705780601f10610b4557610100808354040283529160200191610b70565b820191906000526020600020905b815481529060010190602001808311610b5357829003601f168201915b50505050509050919050565b6000600b54905090565b60008073ffffffffffffffffffffffffffffffffffffffff168273ffffffffffffffffffffffffffffffffffffffff1603610bf6576040517f08c379a0000000000000000000000000000000000000000000000000000000008152600401610bed906130b9565b60405180910390fd5b600360008373ffffffffffffffffffffffffffffffffffffffff1673ffffffffffffffffffffffffffffffffffffffff168152602001908152602001600020549050919050565b610c45611ad4565b610c4f6000611b8f565b565b600060011515600a60003373ffffffffffffffffffffffffffffffffffffffff1673ffffffffffffffffffffffffffffffffffffffff16815260200190815260200160002060009054906101000a900460ff16151503610db7577f633593a3410f74c366cd73f31d9096497e6022b3f5304d8c75e0c718c53670c7600a60003373ffffffffffffffffffffffffffffffffffffffff1673ffffffffffffffffffffffffffffffffffffffff16815260200190815260200160002060009054906101000a900460ff16600960003373ffffffffffffffffffffffffffffffffffffffff1673ffffffffffffffffffffffffffffffffffffffff16815260200190815260200160002060009054906101000a900460ff16604051610d749291906130d9565b60405180910390a16040517f08c379a0000000000000000000000000000000000000000000000000000000008152600401610dae9061314e565b60405180910390fd5b7f000000000000000000000000000000000000000000000000000000000000000073ffffffffffffffffffffffffffffffffffffffff16635d3b1d307f00000000000000000000000000000000000000000000000000000000000000007f000000000000000000000000000000000000000000000000000000000000000060037f000000000000000000000000000000000000000000000000000000000000000060016040518663ffffffff1660e01b8152600401610e7a9594939291906131e6565b6020604051808303816000875af1158015610e99573d6000803e3d6000fd5b505050506040513d601f19601f82011682018060405250810190610ebd919061324e565b9050336008600083815260200190815260200160002060006101000a81548173ffffffffffffffffffffffffffffffffffffffff021916908373ffffffffffffffffffffffffffffffffffffffff160217905550807ff873236e6cc0ecc5be1a9a35c95ee5b8d1ac4cc7bfef0cc5060391d6cc98e26b33604051610f4191906127dc565b60405180910390a290565b6000600760009054906101000a900473ffffffffffffffffffffffffffffffffffffffff16905090565b606060018054610f8590612d56565b80601f0160208091040260200160405190810160405280929190818152602001828054610fb190612d56565b8015610ffe5780601f10610fd357610100808354040283529160200191610ffe565b820191906000526020600020905b815481529060010190602001808311610fe157829003601f168201915b5050505050905090565b61101a6110136113b1565b8383611c55565b5050565b60086020528060005260406000206000915054906101000a900473ffffffffffffffffffffffffffffffffffffffff1681565b61106261105c6113b1565b83611746565b6110a1576040517f08c379a000000000000000000000000000000000000000000000000000000000815260040161109890612f46565b60405180910390fd5b6110ad84848484611dc1565b50505050565b60606110be82611366565b60006006600084815260200190815260200160002080546110de90612d56565b80601f016020809104026020016040519081016040528092919081815260200182805461110a90612d56565b80156111575780601f1061112c57610100808354040283529160200191611157565b820191906000526020600020905b81548152906001019060200180831161113a57829003601f168201915b505050505090506000611168611e1d565b9050600081510361117d5781925050506111c0565b6000825111156111b257808260405160200161119a9291906132b7565b604051602081830303815290604052925050506111c0565b6111bb84611e34565b925050505b919050565b60096020528060005260406000206000915054906101000a900460ff1681565b6000600560008473ffffffffffffffffffffffffffffffffffffffff1673ffffffffffffffffffffffffffffffffffffffff16815260200190815260200160002060008373ffffffffffffffffffffffffffffffffffffffff1673ffffffffffffffffffffffffffffffffffffffff16815260200190815260200160002060009054906101000a900460ff16905092915050565b611281611ad4565b600073ffffffffffffffffffffffffffffffffffffffff168173ffffffffffffffffffffffffffffffffffffffff16036112f0576040517f08c379a00000000000000000000000000000000000000000000000000000000081526004016112e79061334d565b60405180910390fd5b6112f981611b8f565b50565b60007f01ffc9a7000000000000000000000000000000000000000000000000000000007bffffffffffffffffffffffffffffffffffffffffffffffffffffffff1916827bffffffffffffffffffffffffffffffffffffffffffffffffffffffff1916149050919050565b61136f81611e9c565b6113ae576040517f08c379a00000000000000000000000000000000000000000000000000000000081526004016113a590612ff8565b60405180910390fd5b50565b600033905090565b816004600083815260200190815260200160002060006101000a81548173ffffffffffffffffffffffffffffffffffffffff021916908373ffffffffffffffffffffffffffffffffffffffff160217905550808273ffffffffffffffffffffffffffffffffffffffff1661142c83610a46565b73ffffffffffffffffffffffffffffffffffffffff167f8c5be1e5ebec7d5bd14f71427d1e84f3dd0314c0f7b2291e5b200ac8c7c3b92560405160405180910390a45050565b60006008600084815260200190815260200160002060009054906101000a900473ffffffffffffffffffffffffffffffffffffffff1690506000600b54905060006004846000815181106114c9576114c8613018565b5b60200260200101516114db919061339c565b905060008160038111156114f2576114f1612c55565b5b905060006008600088815260200190815260200160002060009054906101000a900473ffffffffffffffffffffffffffffffffffffffff16905081600960008373ffffffffffffffffffffffffffffffffffffffff1673ffffffffffffffffffffffffffffffffffffffff16815260200190815260200160002060006101000a81548160ff0219169083600381111561158e5761158d612c55565b5b021790555061159d8585611edd565b61165f84600c8460038111156115b6576115b5612c55565b5b815481106115c7576115c6613018565b5b9060005260206000200180546115dc90612d56565b80601f016020809104026020016040519081016040528092919081815260200182805461160890612d56565b80156116555780601f1061162a57610100808354040283529160200191611655565b820191906000526020600020905b81548152906001019060200180831161163857829003601f168201915b5050505050611efb565b6001600a6000600860008b815260200190815260200160002060009054906101000a900473ffffffffffffffffffffffffffffffffffffffff1673ffffffffffffffffffffffffffffffffffffffff1673ffffffffffffffffffffffffffffffffffffffff16815260200190815260200160002060006101000a81548160ff0219169083151502179055506001600b60008282546116fd91906133fc565b925050819055507f8a269f26b688e110e9cbd887d163dab35cae678fa353a0292de532c0cac1ecdc8286604051611735929190613430565b60405180910390a150505050505050565b60008061175283610a46565b90508073ffffffffffffffffffffffffffffffffffffffff168473ffffffffffffffffffffffffffffffffffffffff161480611794575061179381856111e5565b5b806117d257508373ffffffffffffffffffffffffffffffffffffffff166117ba846106f5565b73ffffffffffffffffffffffffffffffffffffffff16145b91505092915050565b8273ffffffffffffffffffffffffffffffffffffffff166117fb82610a46565b73ffffffffffffffffffffffffffffffffffffffff1614611851576040517f08c379a0000000000000000000000000000000000000000000000000000000008152600401611848906134cb565b60405180910390fd5b600073ffffffffffffffffffffffffffffffffffffffff168273ffffffffffffffffffffffffffffffffffffffff16036118c0576040517f08c379a00000000000000000000000000000000000000000000000000000000081526004016118b79061355d565b60405180910390fd5b6118cd8383836001611f68565b8273ffffffffffffffffffffffffffffffffffffffff166118ed82610a46565b73ffffffffffffffffffffffffffffffffffffffff1614611943576040517f08c379a000000000000000000000000000000000000000000000000000000000815260040161193a906134cb565b60405180910390fd5b6004600082815260200190815260200160002060006101000a81549073ffffffffffffffffffffffffffffffffffffffff02191690556001600360008573ffffffffffffffffffffffffffffffffffffffff1673ffffffffffffffffffffffffffffffffffffffff168152602001908152602001600020600082825403925050819055506001600360008473ffffffffffffffffffffffffffffffffffffffff1673ffffffffffffffffffffffffffffffffffffffff16815260200190815260200160002060008282540192505081905550816002600083815260200190815260200160002060006101000a81548173ffffffffffffffffffffffffffffffffffffffff021916908373ffffffffffffffffffffffffffffffffffffffff160217905550808273ffffffffffffffffffffffffffffffffffffffff168473ffffffffffffffffffffffffffffffffffffffff167fddf252ad1be2c89b69c2b068fc378daa952ba7f163c4a11628f55a4df523b3ef60405160405180910390a4611acf8383836001611f6e565b505050565b611adc6113b1565b73ffffffffffffffffffffffffffffffffffffffff16611afa610f4c565b73ffffffffffffffffffffffffffffffffffffffff1614611b50576040517f08c379a0000000000000000000000000000000000000000000000000000000008152600401611b47906135c9565b60405180910390fd5b565b60006002600083815260200190815260200160002060009054906101000a900473ffffffffffffffffffffffffffffffffffffffff169050919050565b6000600760009054906101000a900473ffffffffffffffffffffffffffffffffffffffff16905081600760006101000a81548173ffffffffffffffffffffffffffffffffffffffff021916908373ffffffffffffffffffffffffffffffffffffffff1602179055508173ffffffffffffffffffffffffffffffffffffffff168173ffffffffffffffffffffffffffffffffffffffff167f8be0079c531659141344cd1fd0a4f28419497f9722a3daafe3b4186f6b6457e060405160405180910390a35050565b8173ffffffffffffffffffffffffffffffffffffffff168373ffffffffffffffffffffffffffffffffffffffff1603611cc3576040517f08c379a0000000000000000000000000000000000000000000000000000000008152600401611cba90613635565b60405180910390fd5b80600560008573ffffffffffffffffffffffffffffffffffffffff1673ffffffffffffffffffffffffffffffffffffffff16815260200190815260200160002060008473ffffffffffffffffffffffffffffffffffffffff1673ffffffffffffffffffffffffffffffffffffffff16815260200190815260200160002060006101000a81548160ff0219169083151502179055508173ffffffffffffffffffffffffffffffffffffffff168373ffffffffffffffffffffffffffffffffffffffff167f17307eab39ab6107e8899845ad3d59bd9653f200f220920489ca2b5937696c3183604051611db4919061266b565b60405180910390a3505050565b611dcc8484846117db565b611dd884848484611f74565b611e17576040517f08c379a0000000000000000000000000000000000000000000000000000000008152600401611e0e906136c7565b60405180910390fd5b50505050565b606060405180602001604052806000815250905090565b6060611e3f82611366565b6000611e49611e1d565b90506000815111611e695760405180602001604052806000815250611e94565b80611e73846120fb565b604051602001611e849291906132b7565b6040516020818303038152906040525b915050919050565b60008073ffffffffffffffffffffffffffffffffffffffff16611ebe83611b52565b73ffffffffffffffffffffffffffffffffffffffff1614159050919050565b611ef78282604051806020016040528060008152506121c9565b5050565b611f0482611e9c565b611f43576040517f08c379a0000000000000000000000000000000000000000000000000000000008152600401611f3a90613759565b60405180910390fd5b80600660008481526020019081526020016000209081611f639190613925565b505050565b50505050565b50505050565b6000611f958473ffffffffffffffffffffffffffffffffffffffff16612224565b156120ee578373ffffffffffffffffffffffffffffffffffffffff1663150b7a02611fbe6113b1565b8786866040518563ffffffff1660e01b8152600401611fe09493929190613a4c565b6020604051808303816000875af192505050801561201c57506040513d601f19601f820116820180604052508101906120199190613aad565b60015b61209e573d806000811461204c576040519150601f19603f3d011682016040523d82523d6000602084013e612051565b606091505b506000815103612096576040517f08c379a000000000000000000000000000000000000000000000000000000000815260040161208d906136c7565b60405180910390fd5b805181602001fd5b63150b7a0260e01b7bffffffffffffffffffffffffffffffffffffffffffffffffffffffff1916817bffffffffffffffffffffffffffffffffffffffffffffffffffffffff1916149150506120f3565b600190505b949350505050565b60606000600161210a84612247565b01905060008167ffffffffffffffff81111561212957612128612868565b5b6040519080825280601f01601f19166020018201604052801561215b5781602001600182028036833780820191505090505b509050600082602001820190505b6001156121be578080600190039150507f3031323334353637383961626364656600000000000000000000000000000000600a86061a8153600a85816121b2576121b161336d565b5b04945060008503612169575b819350505050919050565b6121d3838361239a565b6121e06000848484611f74565b61221f576040517f08c379a0000000000000000000000000000000000000000000000000000000008152600401612216906136c7565b60405180910390fd5b505050565b6000808273ffffffffffffffffffffffffffffffffffffffff163b119050919050565b600080600090507a184f03e93ff9f4daa797ed6e38ed64bf6a1f01000000000000000083106122a5577a184f03e93ff9f4daa797ed6e38ed64bf6a1f010000000000000000838161229b5761229a61336d565b5b0492506040810190505b6d04ee2d6d415b85acef810000000083106122e2576d04ee2d6d415b85acef810000000083816122d8576122d761336d565b5b0492506020810190505b662386f26fc10000831061231157662386f26fc1000083816123075761230661336d565b5b0492506010810190505b6305f5e100831061233a576305f5e10083816123305761232f61336d565b5b0492506008810190505b612710831061235f5761271083816123555761235461336d565b5b0492506004810190505b6064831061238257606483816123785761237761336d565b5b0492506002810190505b600a8310612391576001810190505b80915050919050565b600073ffffffffffffffffffffffffffffffffffffffff168273ffffffffffffffffffffffffffffffffffffffff1603612409576040517f08c379a000000000000000000000000000000000000000000000000000000000815260040161240090613b26565b60405180910390fd5b61241281611e9c565b15612452576040517f08c379a000000000000000000000000000000000000000000000000000000000815260040161244990613b92565b60405180910390fd5b612460600083836001611f68565b61246981611e9c565b156124a9576040517f08c379a00000000000000000000000000000000000000000000000000000000081526004016124a090613b92565b60405180910390fd5b6001600360008473ffffffffffffffffffffffffffffffffffffffff1673ffffffffffffffffffffffffffffffffffffffff16815260200190815260200160002060008282540192505081905550816002600083815260200190815260200160002060006101000a81548173ffffffffffffffffffffffffffffffffffffffff021916908373ffffffffffffffffffffffffffffffffffffffff160217905550808273ffffffffffffffffffffffffffffffffffffffff16600073ffffffffffffffffffffffffffffffffffffffff167fddf252ad1be2c89b69c2b068fc378daa952ba7f163c4a11628f55a4df523b3ef60405160405180910390a46125b3600083836001611f6e565b5050565b6000604051905090565b600080fd5b600080fd5b60007fffffffff0000000000000000000000000000000000000000000000000000000082169050919050565b612600816125cb565b811461260b57600080fd5b50565b60008135905061261d816125f7565b92915050565b600060208284031215612639576126386125c1565b5b60006126478482850161260e565b91505092915050565b60008115159050919050565b61266581612650565b82525050565b6000602082019050612680600083018461265c565b92915050565b600081519050919050565b600082825260208201905092915050565b60005b838110156126c05780820151818401526020810190506126a5565b60008484015250505050565b6000601f19601f8301169050919050565b60006126e882612686565b6126f28185612691565b93506127028185602086016126a2565b61270b816126cc565b840191505092915050565b6000602082019050818103600083015261273081846126dd565b905092915050565b6000819050919050565b61274b81612738565b811461275657600080fd5b50565b60008135905061276881612742565b92915050565b600060208284031215612784576127836125c1565b5b600061279284828501612759565b91505092915050565b600073ffffffffffffffffffffffffffffffffffffffff82169050919050565b60006127c68261279b565b9050919050565b6127d6816127bb565b82525050565b60006020820190506127f160008301846127cd565b92915050565b612800816127bb565b811461280b57600080fd5b50565b60008135905061281d816127f7565b92915050565b6000806040838503121561283a576128396125c1565b5b60006128488582860161280e565b925050602061285985828601612759565b9150509250929050565b600080fd5b7f4e487b7100000000000000000000000000000000000000000000000000000000600052604160045260246000fd5b6128a0826126cc565b810181811067ffffffffffffffff821117156128bf576128be612868565b5b80604052505050565b60006128d26125b7565b90506128de8282612897565b919050565b600067ffffffffffffffff8211156128fe576128fd612868565b5b602082029050602081019050919050565b600080fd5b6000612927612922846128e3565b6128c8565b9050808382526020820190506020840283018581111561294a5761294961290f565b5b835b81811015612973578061295f8882612759565b84526020840193505060208101905061294c565b5050509392505050565b600082601f83011261299257612991612863565b5b81356129a2848260208601612914565b91505092915050565b600080604083850312156129c2576129c16125c1565b5b60006129d085828601612759565b925050602083013567ffffffffffffffff8111156129f1576129f06125c6565b5b6129fd8582860161297d565b9150509250929050565b600080600060608486031215612a2057612a1f6125c1565b5b6000612a2e8682870161280e565b9350506020612a3f8682870161280e565b9250506040612a5086828701612759565b9150509250925092565b612a6381612738565b82525050565b6000602082019050612a7e6000830184612a5a565b92915050565b600060208284031215612a9a57612a996125c1565b5b6000612aa88482850161280e565b91505092915050565b612aba81612650565b8114612ac557600080fd5b50565b600081359050612ad781612ab1565b92915050565b60008060408385031215612af457612af36125c1565b5b6000612b028582860161280e565b9250506020612b1385828601612ac8565b9150509250929050565b600080fd5b600067ffffffffffffffff821115612b3d57612b3c612868565b5b612b46826126cc565b9050602081019050919050565b82818337600083830152505050565b6000612b75612b7084612b22565b6128c8565b905082815260208101848484011115612b9157612b90612b1d565b5b612b9c848285612b53565b509392505050565b600082601f830112612bb957612bb8612863565b5b8135612bc9848260208601612b62565b91505092915050565b60008060008060808587031215612bec57612beb6125c1565b5b6000612bfa8782880161280e565b9450506020612c0b8782880161280e565b9350506040612c1c87828801612759565b925050606085013567ffffffffffffffff811115612c3d57612c3c6125c6565b5b612c4987828801612ba4565b91505092959194509250565b7f4e487b7100000000000000000000000000000000000000000000000000000000600052602160045260246000fd5b60048110612c9557612c94612c55565b5b50565b6000819050612ca682612c84565b919050565b6000612cb682612c98565b9050919050565b612cc681612cab565b82525050565b6000602082019050612ce16000830184612cbd565b92915050565b60008060408385031215612cfe57612cfd6125c1565b5b6000612d0c8582860161280e565b9250506020612d1d8582860161280e565b9150509250929050565b7f4e487b7100000000000000000000000000000000000000000000000000000000600052602260045260246000fd5b60006002820490506001821680612d6e57607f821691505b602082108103612d8157612d80612d27565b5b50919050565b7f4552433732313a20617070726f76616c20746f2063757272656e74206f776e6560008201527f7200000000000000000000000000000000000000000000000000000000000000602082015250565b6000612de3602183612691565b9150612dee82612d87565b604082019050919050565b60006020820190508181036000830152612e1281612dd6565b9050919050565b7f4552433732313a20617070726f76652063616c6c6572206973206e6f7420746f60008201527f6b656e206f776e6572206f7220617070726f76656420666f7220616c6c000000602082015250565b6000612e75603d83612691565b9150612e8082612e19565b604082019050919050565b60006020820190508181036000830152612ea481612e68565b9050919050565b6000604082019050612ec060008301856127cd565b612ecd60208301846127cd565b9392505050565b7f4552433732313a2063616c6c6572206973206e6f7420746f6b656e206f776e6560008201527f72206f7220617070726f76656400000000000000000000000000000000000000602082015250565b6000612f30602d83612691565b9150612f3b82612ed4565b604082019050919050565b60006020820190508181036000830152612f5f81612f23565b9050919050565b600081905092915050565b50565b6000612f81600083612f66565b9150612f8c82612f71565b600082019050919050565b6000612fa282612f74565b9150819050919050565b7f4552433732313a20696e76616c696420746f6b656e2049440000000000000000600082015250565b6000612fe2601883612691565b9150612fed82612fac565b602082019050919050565b6000602082019050818103600083015261301181612fd5565b9050919050565b7f4e487b7100000000000000000000000000000000000000000000000000000000600052603260045260246000fd5b7f4552433732313a2061646472657373207a65726f206973206e6f74206120766160008201527f6c6964206f776e65720000000000000000000000000000000000000000000000602082015250565b60006130a3602983612691565b91506130ae82613047565b604082019050919050565b600060208201905081810360008301526130d281613096565b9050919050565b60006040820190506130ee600083018561265c565b6130fb6020830184612cbd565b9392505050565b7f596f752061726520616c726561647920696e206120686f757365000000000000600082015250565b6000613138601a83612691565b915061314382613102565b602082019050919050565b600060208201905081810360008301526131678161312b565b9050919050565b6000819050919050565b6131818161316e565b82525050565b600067ffffffffffffffff82169050919050565b6131a481613187565b82525050565b600061ffff82169050919050565b6131c1816131aa565b82525050565b600063ffffffff82169050919050565b6131e0816131c7565b82525050565b600060a0820190506131fb6000830188613178565b613208602083018761319b565b61321560408301866131b8565b61322260608301856131d7565b61322f60808301846131d7565b9695505050505050565b60008151905061324881612742565b92915050565b600060208284031215613264576132636125c1565b5b600061327284828501613239565b91505092915050565b600081905092915050565b600061329182612686565b61329b818561327b565b93506132ab8185602086016126a2565b80840191505092915050565b60006132c38285613286565b91506132cf8284613286565b91508190509392505050565b7f4f776e61626c653a206e6577206f776e657220697320746865207a65726f206160008201527f6464726573730000000000000000000000000000000000000000000000000000602082015250565b6000613337602683612691565b9150613342826132db565b604082019050919050565b600060208201905081810360008301526133668161332a565b9050919050565b7f4e487b7100000000000000000000000000000000000000000000000000000000600052601260045260246000fd5b60006133a782612738565b91506133b283612738565b9250826133c2576133c161336d565b5b828206905092915050565b7f4e487b7100000000000000000000000000000000000000000000000000000000600052601160045260246000fd5b600061340782612738565b915061341283612738565b925082820190508082111561342a576134296133cd565b5b92915050565b60006040820190506134456000830185612cbd565b61345260208301846127cd565b9392505050565b7f4552433732313a207472616e736665722066726f6d20696e636f72726563742060008201527f6f776e6572000000000000000000000000000000000000000000000000000000602082015250565b60006134b5602583612691565b91506134c082613459565b604082019050919050565b600060208201905081810360008301526134e4816134a8565b9050919050565b7f4552433732313a207472616e7366657220746f20746865207a65726f2061646460008201527f7265737300000000000000000000000000000000000000000000000000000000602082015250565b6000613547602483612691565b9150613552826134eb565b604082019050919050565b600060208201905081810360008301526135768161353a565b9050919050565b7f4f776e61626c653a2063616c6c6572206973206e6f7420746865206f776e6572600082015250565b60006135b3602083612691565b91506135be8261357d565b602082019050919050565b600060208201905081810360008301526135e2816135a6565b9050919050565b7f4552433732313a20617070726f766520746f2063616c6c657200000000000000600082015250565b600061361f601983612691565b915061362a826135e9565b602082019050919050565b6000602082019050818103600083015261364e81613612565b9050919050565b7f4552433732313a207472616e7366657220746f206e6f6e20455243373231526560008201527f63656976657220696d706c656d656e7465720000000000000000000000000000602082015250565b60006136b1603283612691565b91506136bc82613655565b604082019050919050565b600060208201905081810360008301526136e0816136a4565b9050919050565b7f45524337323155524953746f726167653a2055524920736574206f66206e6f6e60008201527f6578697374656e7420746f6b656e000000000000000000000000000000000000602082015250565b6000613743602e83612691565b915061374e826136e7565b604082019050919050565b6000602082019050818103600083015261377281613736565b9050919050565b60008190508160005260206000209050919050565b60006020601f8301049050919050565b600082821b905092915050565b6000600883026137db7fffffffffffffffffffffffffffffffffffffffffffffffffffffffffffffffff8261379e565b6137e5868361379e565b95508019841693508086168417925050509392505050565b6000819050919050565b600061382261381d61381884612738565b6137fd565b612738565b9050919050565b6000819050919050565b61383c83613807565b61385061384882613829565b8484546137ab565b825550505050565b600090565b613865613858565b613870818484613833565b505050565b5b818110156138945761388960008261385d565b600181019050613876565b5050565b601f8211156138d9576138aa81613779565b6138b38461378e565b810160208510156138c2578190505b6138d66138ce8561378e565b830182613875565b50505b505050565b600082821c905092915050565b60006138fc600019846008026138de565b1980831691505092915050565b600061391583836138eb565b9150826002028217905092915050565b61392e82612686565b67ffffffffffffffff81111561394757613946612868565b5b6139518254612d56565b61395c828285613898565b600060209050601f83116001811461398f576000841561397d578287015190505b6139878582613909565b8655506139ef565b601f19841661399d86613779565b60005b828110156139c5578489015182556001820191506020850194506020810190506139a0565b868310156139e257848901516139de601f8916826138eb565b8355505b6001600288020188555050505b505050505050565b600081519050919050565b600082825260208201905092915050565b6000613a1e826139f7565b613a288185613a02565b9350613a388185602086016126a2565b613a41816126cc565b840191505092915050565b6000608082019050613a6160008301876127cd565b613a6e60208301866127cd565b613a7b6040830185612a5a565b8181036060830152613a8d8184613a13565b905095945050505050565b600081519050613aa7816125f7565b92915050565b600060208284031215613ac357613ac26125c1565b5b6000613ad184828501613a98565b91505092915050565b7f4552433732313a206d696e7420746f20746865207a65726f2061646472657373600082015250565b6000613b10602083612691565b9150613b1b82613ada565b602082019050919050565b60006020820190508181036000830152613b3f81613b03565b9050919050565b7f4552433732313a20746f6b656e20616c7265616479206d696e74656400000000600082015250565b6000613b7c601c83612691565b9150613b8782613b46565b602082019050919050565b60006020820190508181036000830152613bab81613b6f565b905091905056fea264697066735822122081b0ae42590c1e16a7b416892fa9c9f6f4ff89019646c992ad9fbbc1fc460da164736f6c63430008130033697066733a2f2f516d586a613251424b734e5739716e77396b4b66636d3235724a546f6d7741564a557258656b59464a6e567762672f526176656e636c61772e6a736f6e697066733a2f2f516d586a613251424b734e5739716e77396b4b66636d3235724a546f6d7741564a557258656b59464a6e567762672f487566666c65707566662e6a736f6e697066733a2f2f516d586a613251424b734e5739716e77396b4b66636d3235724a546f6d7741564a557258656b59464a6e567762672f4772796666696e646f722e6a736f6e697066733a2f2f516d586a613251424b734e5739716e77396b4b66636d3235724a546f6d7741564a557258656b59464a6e567762672f536c7974686572696e2e6a736f6e",
  "immutableReferences": {
    "10": [
      {
        "length": 32,
        "start": 2132
      },
      {
        "length": 32,
        "start": 2216
      }
    ],
    "2952": [
      {
        "length": 32,
        "start": 3513
      }
    ],
    "2954": [
      {
        "length": 32,
        "start": 3606
      }
    ],
    "2956": [
      {
        "length": 32,
        "start": 3573
      }
    ],
    "2961": [
      {
        "length": 32,
        "start": 3641
      }
    ]
  },
  "source": "// SPDX-License-Identifier: MIT\r\n\r\npragma solidity ^0.8.8;\r\n\r\nimport \"@openzeppelin/contracts/token/ERC721/extensions/ERC721URIStorage.sol\";\r\nimport \"@openzeppelin/contracts/access/Ownable.sol\";\r\nimport \"@chainlink/contracts/src/v0.8/interfaces/VRFCoordinatorV2Interface.sol\";\r\nimport \"@chainlink/contracts/src/v0.8/VRFConsumerBaseV2.sol\";\r\n\r\nerror HogwartsNFT__WithdrawalFailed();\r\n\r\ncontract HogwartsNFT is VRFConsumerBaseV2, ERC721URIStorage, Ownable {\r\n    // NFT variables\r\n    mapping(uint256 => address) public s_requestIdToSender; // a mapping from requestId to the address that made that request\r\n    mapping(address => House) public s_addressToHouse; // new mapping to map address to the house they got\r\n    mapping(address => bool) private s_minted; // mapping a boolean to the address if they have already minted the NFT\r\n\r\n\r\n    uint256 private s_tokenCounter;\r\n    string[] internal houseTokenURIs = [\r\n        \"ipfs://QmXja2QBKsNW9qnw9kKfcm25rJTomwAVJUrXekYFJnVwbg/Gryffindor.json\",\r\n        \"ipfs://QmXja2QBKsNW9qnw9kKfcm25rJTomwAVJUrXekYFJnVwbg/Hufflepuff.json\",\r\n        \"ipfs://QmXja2QBKsNW9qnw9kKfcm25rJTomwAVJUrXekYFJnVwbg/Ravenclaw.json\",\r\n        \"ipfs://QmXja2QBKsNW9qnw9kKfcm25rJTomwAVJUrXekYFJnVwbg/Slytherin.json\"\r\n    ]; // [Gryffindor, Hufflepuff, Ravenclaw, Slytherin]\r\n\r\n    enum House {\r\n        Gryffindor, // 0th item\r\n        Hufflepuff, // 1st item\r\n        Ravenclaw, // 2nd item\r\n        Slytherin // 3rd item\r\n    }\r\n\r\n    // Chainlink VRF variables\r\n    VRFCoordinatorV2Interface private immutable i_vrfCoordinator;\r\n    uint64 private immutable i_subscriptionId; // get subscription ID from vrf.chain.link\r\n    bytes32 private immutable i_keyHash;\r\n    uint16 private constant REQUEST_CONFIRMATIONS = 3;\r\n    uint32 private immutable i_callbackGasLimit;\r\n    uint32 private constant NUM_WORDS = 1;\r\n\r\n    // Events\r\n    event NftRequested(uint256 indexed requestId, address requester);\r\n    event NftMinted(House house, address minter);\r\n    event AlreadyMinted(bool s_minted, House house);\r\n\r\n    constructor(\r\n        address vrfCoordinatorV2Address,\r\n        uint64 subId,\r\n        bytes32 keyHash,\r\n        uint32 callbackGasLimit\r\n    )\r\n        VRFConsumerBaseV2(vrfCoordinatorV2Address)\r\n        ERC721(\"Hogwarts NFT\", \"HP\")\r\n    {\r\n        s_tokenCounter = 0;\r\n\r\n        // VRF variables \r\n        i_vrfCoordinator = VRFCoordinatorV2Interface(vrfCoordinatorV2Address);\r\n        i_subscriptionId = subId;\r\n        i_keyHash = keyHash;\r\n        i_callbackGasLimit = callbackGasLimit;\r\n    }\r\n\r\n    function requestNFT() public payable returns (uint256 requestId) {\r\n        \r\n        // Check if user has already minted an NFT\r\n        if (s_minted[msg.sender] == true) {\r\n            emit AlreadyMinted (s_minted[msg.sender], s_addressToHouse[msg.sender]);\r\n            revert (\"You are already in a house\");\r\n        }\r\n\r\n        requestId = i_vrfCoordinator.requestRandomWords(\r\n            i_keyHash, \r\n            i_subscriptionId,\r\n            REQUEST_CONFIRMATIONS,\r\n            i_callbackGasLimit,\r\n            NUM_WORDS\r\n        ); \r\n\r\n        s_requestIdToSender[requestId] = msg.sender; // map the caller to their respective requestIDs.\r\n\r\n        // emit an event\r\n        emit NftRequested(requestId, msg.sender);\r\n    }\r\n\r\n    function fulfillRandomWords(uint256 requestId, uint256[] memory randomWords) internal override\r\n    {\r\n        // Step 1 - figure out nftOwner\r\n        address nftOwner = s_requestIdToSender[requestId]; // map the requestId to whoever sent the request for Randomness\r\n\r\n        // Step 2 - mint the NFT\r\n        uint256 tokenId = s_tokenCounter; // assign unique tokenId\r\n\r\n        //select a house based on the random number\r\n        uint256 randomNumber = (randomWords[0] % 4); // get a random number between 0 - 4 \r\n\r\n        House house = House(randomNumber); // select a house\r\n\r\n        //Map the house to the address of the requester\r\n        address sender = s_requestIdToSender[requestId];\r\n        s_addressToHouse[sender] = house;\r\n\r\n        _safeMint(nftOwner, tokenId); // finally, mint the NFT using _safeMint function\r\n\r\n        // set Token URI of that particular NFT\r\n        _setTokenURI(tokenId, houseTokenURIs[uint256(house)]); // takes tokenID and tokenURI\r\n\r\n        s_minted[s_requestIdToSender[requestId]] = true; // Mark user as having minted an NFT\r\n\r\n        s_tokenCounter += 1; // increment the token count\r\n\r\n        // emit event\r\n        emit NftMinted(house, nftOwner);\r\n    }\r\n\r\n    function withdraw() public onlyOwner {\r\n        uint256 amount = address(this).balance;\r\n        (bool success, ) = payable(msg.sender).call{value: amount}(\"\");\r\n\r\n        if (!success) {\r\n            revert HogwartsNFT__WithdrawalFailed();\r\n        }\r\n    }\r\n\r\n    // View Functions\r\n\r\n    function getTokenURIs(uint256 index) public view returns (string memory) {\r\n        return houseTokenURIs[index];\r\n    }\r\n\r\n    function getTokenCounter() public view returns (uint256) {\r\n        return s_tokenCounter;\r\n    }\r\n}",
  "sourcePath": "C:\\Users\\aswin\\hogwarts-nfts\\contracts\\HogwartsNFT.sol",
  "compiler": {
    "name": "solc",
    "version": "0.8.19+commit.7dd6d404.Emscripten.clang"
  },
  "schemaVersion": "3.4.13",
  "updatedAt": "2023-03-25T11:10:36.328Z",
  "networkType": "ethereum",
  "devdoc": {
    "events": {
      "Approval(address,address,uint256)": {
        "details": "Emitted when `owner` enables `approved` to manage the `tokenId` token."
      },
      "ApprovalForAll(address,address,bool)": {
        "details": "Emitted when `owner` enables or disables (`approved`) `operator` to manage all of its assets."
      },
      "Transfer(address,address,uint256)": {
        "details": "Emitted when `tokenId` token is transferred from `from` to `to`."
      }
    },
    "kind": "dev",
    "methods": {
      "approve(address,uint256)": {
        "details": "See {IERC721-approve}."
      },
      "balanceOf(address)": {
        "details": "See {IERC721-balanceOf}."
      },
      "getApproved(uint256)": {
        "details": "See {IERC721-getApproved}."
      },
      "isApprovedForAll(address,address)": {
        "details": "See {IERC721-isApprovedForAll}."
      },
      "name()": {
        "details": "See {IERC721Metadata-name}."
      },
      "owner()": {
        "details": "Returns the address of the current owner."
      },
      "ownerOf(uint256)": {
        "details": "See {IERC721-ownerOf}."
      },
      "renounceOwnership()": {
        "details": "Leaves the contract without owner. It will not be possible to call `onlyOwner` functions anymore. Can only be called by the current owner. NOTE: Renouncing ownership will leave the contract without an owner, thereby removing any functionality that is only available to the owner."
      },
      "safeTransferFrom(address,address,uint256)": {
        "details": "See {IERC721-safeTransferFrom}."
      },
      "safeTransferFrom(address,address,uint256,bytes)": {
        "details": "See {IERC721-safeTransferFrom}."
      },
      "setApprovalForAll(address,bool)": {
        "details": "See {IERC721-setApprovalForAll}."
      },
      "supportsInterface(bytes4)": {
        "details": "See {IERC165-supportsInterface}."
      },
      "symbol()": {
        "details": "See {IERC721Metadata-symbol}."
      },
      "tokenURI(uint256)": {
        "details": "See {IERC721Metadata-tokenURI}."
      },
      "transferFrom(address,address,uint256)": {
        "details": "See {IERC721-transferFrom}."
      },
      "transferOwnership(address)": {
        "details": "Transfers ownership of the contract to a new account (`newOwner`). Can only be called by the current owner."
      }
    },
    "version": 1
  },
  "userdoc": {
    "kind": "user",
    "methods": {},
    "version": 1
  }
}